:020000040800F2
:10000000E06B01206902000877020008790200080D
:100010007B0200087D0200087F020008000000004B
:100020000000000000000000000000008102000845
:100030008302000800000000850200088702000813
:100040008902000889020008890200088902000864
:100050008902000889020008890200088902000854
:100060008902000889020008890200088902000844
:1000700089020008890200085D3C0008853C0008F0
:1000800089020008AD3C000889020008A52000088C
:10009000891F0008890200088902000889020008F7
:1000A0002D620008ED6200088D62000889020008D8
:1000B00095630008E16300083564000889020008C0
:1000C00089020008890200088902000889020008E4
:1000D00089020008416A000889020008BD6A000818
:1000E0008902000889020008890200089565000855
:1000F00055660008F565000889020008C93C00083B
:100100008902000889020008956400088902000835
:100110006168000889020008F56400088902000887
:100120008902000889020008890200088902000883
:100130008902000889020008890200088902000873
:100140008902000889020008890200088902000863
:1001500089020008E53C0008053D00088902000806
:100160008902000889020008890200088902000843
:100170008902000889020008890200088902000833
:10018000890200088902000800F002F800F05CF81B
:100190000AA090E8000C82448344AAF10107DA45E2
:1001A00001D100F051F8AFF2090EBAE80F0013F0D8
:1001B000010F18BFFB1A43F00103184744760000F3
:1001C000647600000A444FF0000C10F8013B13F075
:1001D000070408BF10F8014B1D1108BF10F8015BA0
:1001E000641E05D010F8016B641E01F8016BF9D193
:1001F00013F0080F1EBF10F8014BAD1C0C1B09D1EA
:100200006D1E58BF01F801CBFAD505E014F8016B5B
:1002100001F8016B6D1EF9D59142D6D370470000ED
:100220000023002400250026103A28BF78C1FBD8FF
:10023000520728BF30C148BF0B6070471FB507F099
:100240000DFA1FBD10B510BD00F0D2F81146FFF732
:10025000F5FF07F091F900F0F0F803B4FFF7F2FFB3
:1002600003BC06F02BFD00000B48016841F470014F
:1002700001600A480047FEE7FEE7FEE7FEE7FEE70B
:10028000FEE7FEE7FEE7FEE7FEE70000044805495B
:10029000034A054B7047000088ED00E08901000823
:1002A000E0370120E06B0120E03701207047B2F118
:1002B00020030AD5C2F1200301FA02F120FA03F368
:1002C00000FA02F041EA0301704700FA03F14FF02F
:1002D00000007047B2F120030AD5C2F1200320FAD2
:1002E00002F001FA03F321FA02F140EA0300704739
:1002F00021FA03F04FF000017047032A40F23080EA
:1003000010F0030C00F0158011F8013BBCF1020F56
:10031000624498BF11F801CB00F8013B38BF11F8D7
:10032000013BA2F1040298BF00F801CB38BF00F8EE
:10033000013B11F0030300F02580083AC0F008806B
:1003400051F8043B083A51F804CBA0E80810F5E74F
:10035000121D5CBF51F8043B40F8043BAFF3008032
:10036000D20724BF11F8013B11F801CB48BF11F8A7
:10037000012B24BF00F8013B00F801CB48BF00F877
:10038000012B704710B5203AC0F00B80B1E818502F
:10039000203AA0E81850B1E81850A0E81850BFF46F
:1003A000F5AF5FEA027C24BFB1E81850A0E818500E
:1003B00044BF18C918C0BDE810405FEA827C24BF62
:1003C00051F8043B40F8043B08BF7047D20728BFF0
:1003D00031F8023B48BF11F8012B28BF20F8023B3F
:1003E00048BF00F8012B704770477047704770474F
:1003F000754600F02BF8AE4605006946534620F0DE
:100400000700854618B020B5FFF740FFBDE8204043
:100410004FF000064FF000074FF000084FF0000BC0
:1004200021F00701AC46ACE8C009ACE8C009ACE873
:10043000C009ACE8C0098D46704710B50446AFF35B
:1004400000802046BDE81040FFF707BF0048704716
:10045000803701200146082904DA044850F82100B9
:10046000008870474FF0FF30FBE70000E4010020F8
:100470001CB50120314908803149088000200090D6
:1004800003460322022101902E4804F000FB2E486F
:10049000006840F480702C4908600846006820F429
:1004A000807008604FF440302849086000202849D7
:1004B0004860886008464068486008464068486070
:1004C0000846806840F0020088600846806820F492
:1004D000006088600846806888600846C06A20F42A
:1004E0007000C8620846C06AC8620846006920F009
:1004F000605008610846006940F0405008610846B5
:10050000806840F0010088600846806840F4007010
:1005100088600846806840F4807088600846406BB8
:1005200020F01F0048630846406B40F00900486314
:100530000846806840F0804088601CBDA0084742A3
:1005400004064742000402402438024004230140CC
:10055000002001401CB501203E4908803E4908802A
:100560000020009003460322012101903B4804F043
:100570008EFA3B48006840F400703949086008462C
:10058000006820F400700860002036490860364991
:10059000C1F8080133480068C1F804013148006817
:1005A000C1F804010846D0F8080140F00200C1F883
:1005B00008010846D0F8080120F40060C1F80801DD
:1005C0002848001D0068C1F808010846D0F82C0131
:1005D00020F47000C1F82C01224828300068C1F8CE
:1005E0002C010846D0F8100120F0E060C1F810019D
:1005F0000846D0F8100140F0E060C1F8100108464C
:10060000D0F8080140F00100C1F808010846D0F810
:10061000080140F40070C1F808010846D0F808014C
:1006200040F48070C1F808010846D0F8340120F089
:100630001F00C1F834010846D0F8340140F008002A
:10064000C1F834010846D0F8080140F08040C1F8F4
:1006500008011CBDA40847420406474200040240AA
:100660002438024004210140002001401CB50A202A
:100670003221124B124ACDE900100021114804F03A
:10068000C3FF0A2032210D4B64330F4ACDE900101D
:1006900001210C48303004F0B7FF3221094805F041
:1006A0008BF832210748303005F086F8022006F03A
:1006B00097FBFFF7DDFEFFF74DFF1CBDF03B002071
:1006C0004C200140106402404C21014070B50546A9
:1006D0000C46012C00DD70BD2846FFF7BBFEA04292
:1006E0000ED1284601F0D4F90121284601F0BCF9C9
:1006F0000720C5EBC501034A02EB011181F8640034
:1007000000BFE8E7103D0020C0EBC001074A02EB44
:100710000111B1F8601039B90021C0EBC002034BE0
:1007200003EB021282F8641070470000103D0020B5
:1007300070470000C0EBC001074A02EB0111B1F89D
:10074000601039B90021C0EBC002034B03EB021269
:1007500082F8641070470000103D002070470000D0
:1007600010B500204F49087096E04E480078C0EB65
:10077000C0004D4901EB0010B0F8600048B14B4893
:1007800048490978405C20B901214848454A127817
:100790008154464843490978405C012804D0022826
:1007A00047D0032872D171E03E48007802F096FBF2
:1007B0003C490978C1EBC1013B4A02EB0111C86514
:1007C00038480078C0EBC00002EB0010C16D35481E
:1007D000007805F0E1F83348007805F06BF831490E
:1007E0000978C1EBC101304A02EB011191F96C109B
:1007F0002C4A1278C2EBC2022B4B03EB0212526D51
:1008000000FB012027490978C1EBC1011A4602EB20
:10081000011188652348007805F074F840B9234831
:1008200020490978405C401C20491E4A12788854AF
:100830002CE01C48007805F03DF81A490978C1EB16
:10084000C101194A02EB011191F96C10154A127895
:10085000C2EBC202144B03EB0212526D00FB0120EB
:1008600010490978C1EBC1011A4602EB01118865F4
:1008700000200C490978C1EBC10102EB0111A1F87C
:1008800060000A49074A1278885400BF00BF054833
:100890000078401C03490870024800781028FFF6D1
:1008A00064AF10BDB8050020103D002010440020AA
:1008B0007FB504460D46C4EBC400624901EB00104D
:1008C000B0F8600000287CD1C4EBC40001EB00103C
:1008D000806DC4EBC4015B4A02EB01114865C4EBB7
:1008E000C400114601EB00104068C4EBC40102EBE8
:1008F0000111C865C4EBC40002EB0010C16D2046B5
:1009000005F04AF8002D49DD0121204601F02CF8C0
:10091000C4EBC4004B4A02EB00104168204605F0CE
:100920003BF82946204605F0EFF80120C4EBC4014E
:10093000444A02EB0111A1F86000C4EBC400114667
:1009400001EB00104069C4EBC40102EB011189689E
:10095000C4EBC4023B4B03EB0212126DC4EBC403A5
:10096000384E06EB0313DB69CDE90032CDE9021006
:10097000C4EBC40006EB00100369C4EBC40006EB33
:1009800000104268C4EBC40006EB001090F8201081
:10099000204603F0FDF8002004B070BD002D4BDAB6
:1009A0004FF0FF31204600F0DFFFC4EBC400254AC2
:1009B00002EB00104168204604F0EEFF6942204639
:1009C00000E03BE005F0A0F80120C4EBC4011D4AA3
:1009D00002EB0111A1F86000C4EBC400114601EB69
:1009E00000104069C4EBC40102EB01118968C4EB3B
:1009F000C402144B03EB0212126DC4EBC403114E7C
:100A000006EB0313DB69CDE90032CDE90210C4EB3C
:100A1000C40006EB00100369C4EBC40006EB001031
:100A20004268C4EBC40006EB001090F8201020468A
:100A300003F0AEF80020AFE70020ADE74FF0FF3045
:100A4000AAE70000103D002010B50446C4EBC40026
:100A5000FE4901EB001090F86400052813D1C4EBA7
:100A6000C40001EB0010B0F8620060B90120C4EBD3
:100A7000C401F64A02EB0111A1F8620005F044FB43
:100A8000F34941F82400C4EBC400F04901EB001025
:100A900090F8640005282AD1C4EBC40001EB0010D3
:100AA000406B20B305F030FBE94951F82410401A9F
:100AB000C4EBC401E54A02EB0111496B884216D927
:100AC0000221204600F0D0FF204600F0E1FF002088
:100AD000C4EBC401DD4A02EB0111A1F8620007205A
:100AE000C4EBC40102EB011181F8640010BDC4EB3A
:100AF000C400D64901EB0010B0F862001C287AD27D
:100B0000DFE800F0790E83B0C7FDFCFBFAF9F8F7D7
:100B1000F6F5F4F3F2F1F0EFEEEDECEBEAE9E8E7ED
:100B2000C4EBC400C94901EB001090F8380000F094
:100B30000100C8B3C4EBC40001EB001090F83E0004
:100B400088B1C4EBC401C14A02EB011191F8440021
:100B500000F022FFC4EBC401BC4A02EB011191F882
:100B60004210884221D0C4EBC400B84901EB001008
:100B7000406AC4EBC401B54A02EB011108614FF0B1
:100B800010412046FFF794FEC4EBC400AF4901EBCF
:100B90000010B0F86200401CC4EBC401AB4A02EB89
:100BA0000111A1F862002FE0FFE7C4EBC400A749E0
:100BB00001EB001090F8380000F0080040B1102060
:100BC000C4EBC401A14A02EB0111A1F862001BE0D1
:100BD000C4EBC4009D4901EB001090F8380000F010
:100BE000100048B11620C4EBC401984A02EB011171
:100BF000A1F8620008E009E20420C4EBC401934AB2
:100C000002EB0111A1F8620000E2C4EBC4008F49BD
:100C100001EB001090F83E0018B3C4EBC4018B4AFE
:100C200002EB011191F8440000F0B6FEC4EBC401E0
:100C3000864A02EB011191F84210884211D12046F8
:100C400000F026FFC4EBC400804901EB0010B0F8AF
:100C50006200401CC4EBC4017C4A02EB0111A1F804
:100C60006200D3E1C4EBC400784901EB0010B0F896
:100C7000600068B9C4EBC40001EB0010B0F862007A
:100C8000401CC4EBC401714A02EB0111A1F86200DF
:100C9000BCE1C4EBC4006D4901EB001090F83800D2
:100CA00000F0020060B3C4EBC40001EB001090F848
:100CB0003D0030B3C4EBC401644A02EB011191F86A
:100CC000430000F069FEC4EBC401604A02EB01116D
:100CD00018E0FDE3E4E3B7E38CE36AE31CE30AE333
:100CE000E4E2B7E287E265E217E2F8E1E0E1A5E1DC
:100CF0008DE160E115E1FDE0D0E075E05DE02FE021
:100D000025E003E091F84110884220D0C4EBC400F4
:100D10004E4901EB0010406AC4EBC4014B4A02EBA0
:100D2000011108614FF0E0412046FFF7C1FDC4EB1F
:100D3000C400464901EB0010B0F86200401CC4EB4F
:100D4000C401424A02EB0111A1F8620007E007204A
:100D5000C4EBC4013D4A02EB0111A1F86200D7E3E4
:100D6000C4EBC400394901EB001090F83D0018B302
:100D7000C4EBC401354A02EB011191F8430000F0C5
:100D80000BFEC4EBC401314A02EB011191F8411092
:100D9000884211D1204600F07BFEC4EBC4002B49F1
:100DA00001EB0010B0F86200401CC4EBC401274AFC
:100DB00002EB0111A1F86200AAE3C4EBC4002349CD
:100DC00001EB0010B0F8600068B9C4EBC40001EB9F
:100DD0000010B0F86200401CC4EBC4011B4A02EBD7
:100DE0000111A1F8620093E3C4EBC400174901EBC1
:100DF000001090F8380000F0010030B3C4EBC400DC
:100E000001EB001090F8380000F00200E8B9C4EBE4
:100E1000C40001EB0010406AC4EBC4010B4A02EBB2
:100E2000011108614FF0E0412046FFF741FDC4EB9E
:100E3000C400064901EB0010B0F86200401CC4EB8E
:100E4000C401024A02EB011104E006E0103D00205B
:100E500020440020A1F862001FE0C4EBC400FB495D
:100E600001EB0010406AC4EBC401F84A02EB011127
:100E700008614FF010412046FFF71AFDC4EBC40093
:100E8000F24901EB0010B0F86200401CC4EBC40151
:100E9000EE4A02EB0111A1F8620039E3C4EBC40091
:100EA000EA4901EB001090F8300010B3C4EBC40124
:100EB000E64A02EB0111488E00F06EFDC4EBC4015E
:100EC000E24A02EB011191F83110884211D120461B
:100ED00000F0DEFDC4EBC400DC4901EB0010B0F80B
:100EE0006200401CC4EBC401D84A02EB0111A1F816
:100EF00062000DE3C4EBC400D44901EB0010B0F86C
:100F0000600068B9C4EBC40001EB0010B0F86200E7
:100F1000401CC4EBC401CD4A02EB0111A1F86200F0
:100F2000F6E2C4EBC400C94901EB001090F83000B0
:100F300080B3C4EBC401C54A02EB0111488E00F036
:100F40002BFDC4EBC401C14A02EB011191F8311031
:100F5000884220D1C4EBC400114601EB0010806A26
:100F6000C4EBC40102EB011108614FF0E0412046DF
:100F7000FFF79EFCC4EBC400B44901EB0010B0F8CD
:100F80006200401CC4EBC401B04A02EB0111A1F89D
:100F900062000FE0FFE7C4EBC400AC4901EB0010B6
:100FA000B0F86200401CC4EBC401A84A02EB011176
:100FB000A1F86200ACE2C4EBC400A44901EB00104C
:100FC00090F8300080B1C4EBC401A04A02EB0111DB
:100FD000488E00F0E1FCC4EBC4019C4A02EB011115
:100FE00091F83110884211D0204600F051FDC4EB39
:100FF000C400964901EB0010B0F86200401CC4EB3D
:10100000C401924A02EB0111A1F8620080E2C4EB34
:10101000C4008E4901EB0010B0F8600068B9C4EB61
:10102000C40001EB0010B0F86200401CC4EBC40126
:10103000864A02EB0111A1F8620069E2C4EBC40028
:10104000824901EB0010C06A10B3C4EBC40001EB8D
:1010500000100069C4EBC4017C4A02EB0111086175
:10106000C4EBC40002EB0010C16A2046FFF720FC6D
:10107000C4EBC400754901EB0010B0F86200401CDD
:10108000C4EBC401714A02EB0111A1F862000EE049
:10109000C4EBC4006D4901EB0010B0F86200401CC5
:1010A000C4EBC401694A02EB0111A1F862002FE20E
:1010B000C4EBC400654901EB0010B0F8600068B9EA
:1010C000C4EBC40001EB0010B0F86200401CC4EB9C
:1010D000C4015E4A02EB0111A1F8620018E200208F
:1010E000C4EBC401594A02EB01118865C4EBC40189
:1010F00002EB01110865C4EBC40102EB011181F898
:101100006400204600F082FC0020C4EBC4014F4A7A
:1011100002EB0111A1F86200FAE1C4EBC4004B49F3
:1011200001EB001090F8300080B1C4EBC401474AD5
:1011300002EB0111488E00F02FFCC4EBC401434ABE
:1011400002EB011191F83110884219D0C4EBC400B0
:101150003E4901EB0010406AC4EBC4013B4A02EB7C
:10116000011108614FF0E0412046FFF7A1FB11207B
:10117000C4EBC401354A02EB0111A1F8620018E08A
:10118000C4EBC400314901EB0010406AC4EBC40158
:101190002E4A02EB011108614FF0E0412046FFF7B3
:1011A00087FB1220C4EBC401284A02EB0111A1F80D
:1011B0006200ADE1C4EBC400244901EB001090F8DB
:1011C0003000B8B1C4EBC401204A02EB0111488ED3
:1011D00000F0E2FBC4EBC4011C4A02EB011191F8E0
:1011E0003110884206D11220C4EBC40102EB011178
:1011F000A1F862008CE1C4EBC400144901EB0010BB
:1012000090F8300080B1C4EBC401104A02EB011128
:10121000488E00F0C1FBC4EBC4010C4A02EB011183
:1012200091F8311088420FD0204600F031FC04F0D4
:101230006BFF074941F824001320C4EBC401034AA3
:1012400002EB0111A1F8620062E10000103D0020F4
:1012500060440020C4EBC400AF4901EB0010B0F8BB
:10126000600010BB04F050FFAC4951F82410401A44
:1012700040F63401884218D3C4EBC400A64901EB00
:101280000010806AC4EBC401A34A02EB011108619B
:101290004FF010412046FFF70BFB1420C4EBC401B4
:1012A0009D4A02EB0111A1F8620031E1C4EBC400D8
:1012B000994901EB001090F83000D8B1C4EBC4019B
:1012C000954A02EB0111488E00F066FBC4EBC401A5
:1012D000914A02EB011191F8311088420AD120465F
:1012E00000F0D6FB1520C4EBC4018B4A02EB0111C0
:1012F000A1F862000CE1C4EBC400874901EB0010C7
:10130000B0F8600038B90F20C4EBC401824A02EB88
:101310000111A1F86200FBE0C4EBC4007E4901EBBF
:10132000001090F8300080B1C4EBC4017A4A02EB9F
:101330000111488E00F030FBC4EBC401764A02EB89
:10134000011191F83110884219D0C4EBC4007249E0
:1013500001EB0010406AC4EBC4016F4A02EB0111BB
:1013600008614FF010412046FFF7A2FA1720C4EBA6
:10137000C401694A02EB0111A1F8620018E0C4EB54
:10138000C400654901EB0010406AC4EBC401624A25
:1013900002EB011108614FF010412046FFF788FA77
:1013A0001820C4EBC4015C4A02EB0111A1F86200F1
:1013B000AEE0C4EBC400584901EB001090F83000D7
:1013C000B8B1C4EBC401544A02EB0111488E00F0DD
:1013D000E3FAC4EBC401504A02EB011191F8311059
:1013E000884206D11820C4EBC40102EB0111A1F818
:1013F00062008DE0C4EBC400474901EB001090F897
:10140000300080B1C4EBC401434A02EB0111488EA5
:1014100000F0C2FAC4EBC4013F4A02EB011191F89B
:10142000311088420FD0204600F032FB04F06CFEF1
:101430003A4941F824001920C4EBC401364A02EBB2
:101440000111A1F8620063E0C4EBC400324901EB72
:101450000010B0F8600010BB04F056FE2F4951F8A0
:101460002410401A40F63401884218D3C4EBC4005B
:10147000294901EB0010806AC4EBC401264A02EB43
:10148000011108614FF0E0412046FFF711FA1A20E0
:10149000C4EBC401204A02EB0111A1F8620037E05D
:1014A000C4EBC4001C4901EB001090F83000E8B117
:1014B000C4EBC401184A02EB0111488E00F06CFA2B
:1014C000C4EBC401144A02EB011191F8311000E0A1
:1014D0000DE088420AD1204600F0DAFA1B20C4EB66
:1014E000C4010D4A02EB0111A1F8620010E0C4EB47
:1014F000C400094901EB0010B0F8600038B90F20B2
:10150000C4EBC401044A02EB0111A1F8620000BF60
:1015100000BF00BFFFF7EABA103D00206044002082
:1015200010B50446C4EBC400314901EB001090F83B
:101530006C00012828D1C4EBC40001EB001090F826
:101540003D0008B3C4EBC401294A02EB011191F834
:10155000430000F021FAC4EBC401254A02EB01115B
:1015600091F8411088420FD14FF48071204600F06D
:101570007BFA204600F08CFA0720C4EBC4011C4A19
:1015800002EB011181F86400C4EBC400184901EBBF
:10159000001090F96C00B0F1FF3F28D1C4EBC400FB
:1015A00001EB001090F83E0008B3C4EBC401104AF0
:1015B00002EB011191F8440000F0EEF9C4EBC40114
:1015C0000B4A02EB011191F8421088420FD14FF4FF
:1015D0008051204600F048FA204600F059FA0720D2
:1015E000C4EBC401024A02EB011181F8640010BD92
:1015F000103D002010B50446C4EBC4002C4901EB9B
:10160000001090F83F0020B3C4EBC40001EB0010C1
:1016100090F86C0001281CD1C4EBC40001EB001051
:10162000806DC4EBC401224A02EB0111896C88422F
:101630000FDB4FF40071204600F016FA204600F050
:1016400027FA0720C4EBC401194A02EB011181F803
:101650006400C4EBC400164901EB001090F8400090
:1016600028B3C4EBC40001EB001090F96C00B0F19A
:10167000FF3F1CD1C4EBC40001EB0010806DC4EB34
:10168000C4010B4A02EB0111C96C88420FDC4FF414
:101690000051204600F0E8F9204600F0F9F9072053
:1016A000C4EBC401024A02EB011181F8640010BDD1
:1016B000103D00202DE9F04188B004460D4604EBB2
:1016C0004400614951F82000806D68436421B0FBFB
:1016D000F1F604EB44005C4951F82000806B68434C
:1016E0006421B0FBF1F704EB4400574951F82000A6
:1016F000806968436421B0FBF1F804EB440052496F
:1017000051F82000D0F8A80004EB44014E4A52F8EA
:101710002110896E04EB44024B4B53F82220D2F87F
:10172000982004EB4403DFF820C15CF82330D3F8A1
:101730008830CDE90332CDE9051004EB4400614661
:1017400051F82000806F04EB4401624652F82110EA
:10175000896CCDE90016029004EB4401134653F85E
:101760002110E0B23B468A6A414603F015FD04EBC6
:101770004402354B53F8222092F8BB10E0B203F03C
:101780005FFC04EB4400304951F8200090F8DA2067
:1017900004EB440051F8200090F8D93004EB4400E9
:1017A00051F8200090F8D81004EB4400264E56F86B
:1017B000200090F8CA0002AE0BC6059204EB44006C
:1017C000214951F8200090F8C90004EB44011E4A59
:1017D00052F8211091F8C81004EB44061746CDE9E1
:1017E000001057F8266096F8BA3004EB440657F814
:1017F000266096F8B92004EB440657F8266096F860
:10180000B810E0B203F0B0FB04EB4400394651F8E5
:101810002000D0F8F80004EB4406009057F826604A
:1018200096F8FC3004EB440657F82660D6F8E8201A
:1018300004EB440657F8266096F8EC10E0B203F08B
:1018400081FC08B0BDE8F081F0590020704700002D
:101850002DE9F04104460E461546E0B203F002FAC7
:101860000746042E62D006DC012E0BD0022E25D0B6
:10187000032E73D13EE0052E5FD0802E5ED0902ED9
:101880006CD15FE0E0B203F0DDF94FF2FF010840F8
:1018900020B9BD4202DAE0B203F04AFBE0B203F045
:1018A000D1F9C0F30B0020B9BD4202DDE0B203F074
:1018B0003FFBE0B2294603F085FA50E0E0B203F0C6
:1018C000C1F94FF2FF01084020B9002D02DAE0B261
:1018D00003F02EFBE0B203F0B5F9C0F30B0020B922
:1018E000002D02DDE0B203F023FBE0B2294603F055
:1018F000A1FA34E0E0B203F0A5F94FF2FF0108408D
:1019000020B9002D02DAE0B203F012FBE0B203F0DE
:1019100099F9C0F30B0020B9002D02DDE0B203F00D
:1019200007FBE0B2294603F0C3FA18E0E0B203F087
:10193000FFFAE0B203F0B6F911E010E0E0B203F014
:101940003FFD0CE0E0B203F0FBFC064850F8240039
:10195000401C044941F8240001E0FFE700BF00BF3C
:10196000BDE8F081D05A002070B505460C46C5EBA5
:10197000C500084901EB001080F86C40002C04DD24
:101980000121284602F036FA03E00021284602F041
:1019900031FA70BD103D002010B50446802C04D2F1
:1019A000E0B203F0D9FDC0B210BD802C08D3902C5A
:1019B00006D2A4F18001C8B2FEF74CFDC0B2F3E735
:1019C000902C08D3A02C06D2A4F19001C8B203F049
:1019D000D5FDC0B2E8E7C02C09D3D02C07D2A4F1C2
:1019E000C001C8B2002103F005F8C0B2DCE7D02C7A
:1019F00009D3E02C07D2A4F1D001C8B2012102F032
:101A0000F9FFC0B2D0E70020CEE70000C0EBC00174
:101A1000104A02EB01110968C0EBC0020D4B03EB49
:101A200002125160C0EBC0011A4602EB0111C968F5
:101A3000C0EBC00203EB02121161C0EBC0011A46F9
:101A400002EB01118969C0EBC00203EB0212D16104
:101A500070470000103D00200146142901D21420D7
:101A600070470846FCE7000010B510280CDAC0EB00
:101A7000C002064B03EB0212926E0A43C0EBC00396
:101A8000024C04EB03139A6610BD0000103D0020C9
:101A900010B50446204604F071F810BD7FB5044629
:101AA000204601F079F90546204603F017FF064667
:101AB000204603F0FFFE301AA8424DD9C4EBC40003
:101AC000264901EB0010C06DC4EBC401234A02EBB0
:101AD00001114860C4EBC400114601EB0010C06D59
:101AE000C4EBC40102EB01110861204603F0E2FEE1
:101AF00046193146204603F03BFFC4EBC4001749AA
:101B000001EB00104069C4EBC401144A02EB01115F
:101B10008968C4EBC402114B03EB0212126DC4EBD3
:101B2000C4030E4E06EB0313DB69CDE90032CDE9A9
:101B30000210C4EBC40006EB00100369C4EBC40040
:101B400006EB00104268C4EBC40006EB001090F8EE
:101B50002010204602F01CF87FBD0000103D002040
:101B6000C0EBC001074A02EB0111B1F8601039B9AE
:101B70000021C0EBC002034B03EB021282F8641099
:101B800070470000103D0020C0EBC001074A02EB87
:101B90000111B1F8601039B90021C0EBC002034B4C
:101BA00003EB021282F8641070470000103D002021
:101BB000704700002DE9F041C4B006460D461446BA
:101BC000984600274FF488720C496846FEF7DAFB06
:101BD0004FF4887269462046FEF78FFB00BF07E08E
:101BE000E670204610348580681C85B2781CC7B228
:101BF000112FF5D344B0BDE8F081000068760008ED
:101C00002DE9FF4100240025A04600260020009079
:101C100001900290039000BF96E004EB44004E490F
:101C200051F8200090F8010100285AD0002104EB5F
:101C30004400494A52F8200080F8011104EB4400A6
:101C4000114651F82000D0F8087104EB440051F817
:101C5000200090F80C5104EB440051F8200090F85B
:101C60000D81204603F00EF8C6B20EB1072E18D132
:101C700004EB4400384951F8200090F80E0104EBC1
:101C80004401354A02EB8101087241462046FFF7C4
:101C900011FD3A4629462046FFF7DAFD0DF80450BB
:101CA0001FE005F0F0001DF8041001F0F00188427B
:101CB00017DD04EB4400284951F8200090F80E018C
:101CC00004EB4401244A02EB81010872414620469C
:101CD000FFF7F0FC3A4629462046FFF7B9FD0DF81C
:101CE0000450204602F0BEFF04EB44011A4A52F8A9
:101CF00021108860204602F0A5FF81B204EB440069
:101D0000154A52F820008181204602F0BBFFC6B27E
:101D10000EB1072E16D1204602F058FF04EB440105
:101D20000D4A02EB8101097A01F00701884209D0CE
:101D300004EB440002EB8000007A00F0070120462B
:101D400003F0A8FF601CC4B204488078A0423FF7AB
:101D500064AFBDE8FF810000F0590020C05A0020A8
:101D60002DE9FC4704460D4616461F46DDF828902F
:101D70004FF0000814B10DB106B117B90120BDE84C
:101D8000FC87601EC4B2681EC5B2701EC6B2781E43
:101D900087B201206D4908800880022100230A468D
:101DA000CDE900106A4802F072FE012002210023F2
:101DB0000A46CDE900100146654802F068FE092296
:101DC0000121634802F043FE09220021604802F02D
:101DD0003EFE01205F49088000205F4908600846F8
:101DE000006840F00100086008E008F101001FFAF7
:101DF00080F8B8F1640F01DD0220C0E75648001DED
:101E0000006800F001000028EFD0534800685249F4
:101E100008600846006840F0400008600846006816
:101E200008600846006840F0100008600846006836
:101E30000860084600680860002047491C310860B7
:101E40000846006840EA897008600846006840EA71
:101E5000046008600846006840EA055008600846CB
:101E6000006840EA06400860084600683843086099
:101E70003948006820F001003749086009E008F19E
:101E800001001FFA80F84FF6F070804501DD032055
:101E900075E73148001D006800F001000028EED110
:101EA0002E48006840F001002C4908602B481C3087
:101EB000006820F0010029491C31086027480C30D7
:101EC000006840F0010025490C3108602348001DDE
:101ED00000682249091D08602048143000681F4925
:101EE0001431086000201D494031086000211B4862
:101EF0004430016019481C30006840F00100174967
:101F00001C31086015480068002014490860124818
:101F10001430006840F001000F49143108600223BA
:101F200013220021012003F057FC0B4814300068F5
:101F300040F00200084914310860022314220021F5
:101F4000012003F049FC002019E700000C0647427D
:101F5000000C0240640847420064004000660040F4
:101F6000014621B90748006800F0030070470129C5
:101F700005D10448001D006800F00300F6E70020CA
:101F8000F4E700000C64004000B500F007F8012001
:101F90000149487400BD0000B83C00200FB5002086
:101FA000FFF7DEFF10B9002004B000BD0648411E57
:101FB00002AB03AACDE90010411F002000F006F893
:101FC00001481938007EEFE7D13C0020F0B5DDE98B
:101FD0000554324E06EB0016366806F004061670FD
:101FE000167836B92D4E06EB00163668760D0E6063
:101FF00005E02A4E06EB00163668F6080E60274EFE
:1020000006EB0016366806F002061E70234E06EB3D
:102010000016766806F00F062E70204E06EB0016AE
:10202000B66826701D4E06EB0016B668360A667056
:102030001A4E06EB0016B668360CA670174E06EB65
:102040000016B668360EE670144E06EB0016F668FB
:102050002671124E06EB0016F668360A66710F4EB0
:1020600006EB0016F668360CA6710C4E06EB001651
:10207000F668360EE67130B9094E366846F020062D
:10208000074F3E6009E0012807D1054E361D36682E
:1020900046F02006024F3F1D3E60F0BDB065004097
:1020A0000C6400401248006800F0010028B110489C
:1020B000006840F001000E4908600D48006800F417
:1020C000807028B10A48006840F4807008490860B0
:1020D0000748006800F4803028B10548006840F4E3
:1020E0008030034908600020024908607047000002
:1020F00008640040B83C0020F0B505460E46059C3B
:102100003748006800F0806008B1002101E0FF203E
:10211000F0BD0027334800EB011007601EB9C5F37E
:102120000A056D0502E025F06045ED002D4800EB45
:102130000110006828432B4F07EB0117386029482E
:1021400000EB0110006840EA8607264800EB01100A
:102150000760244800EB0110006840EA420721486C
:1021600000EB0110076003F00F031E4800EB0110A5
:10217000406820F00F071B4800EB0110476019482A
:1021800000EB011040681843164F07EB0117786009
:10219000E0790006A77940EA0740677940EA07201E
:1021A000277938430F4F07EB0117F860E0780006F6
:1021B000A77840EA0740677840EA07202778384345
:1021C000084F07EB0117B860064800EB01100068E4
:1021D00040F00107034800EB01100760084697E74D
:1021E0000864004080650040014600207047704749
:1021F0002DE9F047044689469246C4F30467C4F3C8
:102200000A28C4F3C056E5B232484078B8420BD031
:1022100031480078A84203D14FF0FF30BDE8F08785
:102220002D4805700020F9E72C4800EB08102C49D8
:10223000086029480078A84242D027480570BEB9F6
:1022400008460068C07998B908460068007840B22E
:102250002449087022480068027821480168083142
:102260002148FEF74AF8214800682149086027E024
:10227000012E25D11A480068C079012820D11D48B7
:1022800090F900201C49164800680830FEF735F820
:10229000134800688079032804D0114800688079C9
:1022A000042806D10E4800684078401C0C49096893
:1022B00048700E4800680E490860002009490870FF
:1022C00008480178084A0A48006800F02FFD0020FD
:1022D000A4E70000C05A0020BC050020A044002054
:1022E000C0050020D5050020CC050020D805002021
:1022F000DC050020D4050020C405002070B586B0A0
:102300000446002508E00021FE4800EBC4106430BC
:1023100040F82510681CC5B2072DF4DB204603F0F9
:10232000DDFAF84901EBC4118865F64800EBC410EA
:10233000007800287ED1F34800EBC410C069002863
:1023400077D0F04800EBC410006A002871D0ED4847
:1023500000EBC410C068EB4901EBC4118968401A56
:1023600000EE100AB8EE400ADFEDE70A60EE200A40
:10237000E44800EBC41090ED070AB8EE400A80EE86
:10238000801ABCEEC10ADF4800EBC41080ED050ADC
:10239000DC4800EBC4104369DA4800EBC410C268A3
:1023A000D84800EBC410816802A801F061FEDDE9A5
:1023B0000201CDE90401D34800EBC4100599816600
:1023C000D04800EBC410C168CE4800EBC4100069CF
:1023D000081A00EE100AB8EE400ADFEDCB0A60EEF4
:1023E000200AC84800EBC41090ED080AB8EE400A75
:1023F00080EE801ABCEEC10AC24800EBC41080ED2A
:10240000060AC04800EBC4108369BE4800EBC41044
:102410000269BC4800EBC410C16802A802F084F84D
:10242000DDE90201CDE90401B64800EBC4100599CD
:10243000816700E0A2E0B34800EBC410816EB148B0
:1024400000EBC410806F0144AE4800EBC410806DF7
:10245000814212D8AB4800EBC410816DA94800EB53
:10246000C410806E091AA74800EBC410806F091AC7
:10247000A44800EBC410016764E2A24800EBC4105A
:1024800090ED160AB8EE400ADFEDA00A60EE200AD1
:102490009C4800EBC41090ED070AB8EE400A60EECD
:1024A000800A984800EBC410C169964800EBC4103C
:1024B000006A084400EE100AB8EE400A80EE801A66
:1024C000BCEEC10A10EE106A8E4800EBC4104269DF
:1024D0008C4800EBC4103346816802A803F06CFB03
:1024E000DDE90201CDE90401864800EBC41004993E
:1024F000C160844800EBC41005998166814800EBF7
:10250000C41083697F4800EBC41002697D4800EB6A
:10251000C410C16802A802F007F8DDE90201CDE9A4
:102520000401784800EBC41005998167754800EBF9
:10253000C410816E734800EBC410806F0144714871
:1025400000EBC410806D814212D86E4800EBC410BD
:10255000816D6C4800EBC410806E091A694800EB6D
:10256000C410806F091A674800EBC41001679BE331
:102570000021644800EBC410016795E3614800EB5B
:10258000C41000780128F2D15E4800EBC410C06985
:102590000028ECD05B4800EBC410006A0028E6D0AD
:1025A000584800EBC41090ED070AB8EE400ADFED82
:1025B000580A20EE200ADFED540A80EE201A514816
:1025C00000EBC41080ED091A4E4800EBC410C0683F
:1025D0004C4901EBC4118968401A00EE100AB8EEAC
:1025E000400ADFED490A60EE200A464800EBC410BD
:1025F00090ED070AB8EE400A9FED461A20EE010A58
:1026000080EE801ABDEEC10A3E4800EBC41080ED9A
:10261000050A3C4800EBC41090ED050AB8EE400AEC
:10262000384800EBC410D0ED090A9FED371A20EEB0
:10263000811AC0EE010AB6EE000A30EE800ABDEE45
:10264000C00A304800EBC41080ED0B0A2D4800EBA7
:10265000C41090ED080AB8EE400ADFED2D0A20EE16
:10266000200ADFED290A80EE201A264800EBC4106C
:1026700080ED0A1A234800EBC410C168214800EB22
:10268000C4100069081A00EE100AB8EE400ADFED27
:102690001E0A60EE200A1B4800EBC41090ED080AE9
:1026A000B8EE400A9FED1B1A20EE010A80EE801A58
:1026B000BDEEC10A134800EBC41080ED060A1148B4
:1026C00000EBC41090ED060AB8EE400A0D4800EB8E
:1026D000C410D0ED0A0A9FED0C1A20EE811AC0EE4C
:1026E000010AB6EE000A30EE800ABDEEC00A0548C7
:1026F00000EBC41080ED0C0A024800EBC410C36A62
:10270000004809E0802F012000007A446666663F99
:10271000CDCCCC3E9A99193F00EBC4104269FE48DB
:1027200000EBC410816802A801F01EFCDDE9020183
:10273000CDE90401F84800EBC4100499C163F648E0
:1027400000EBC41005994166F34800EBC410C06863
:10275000F14901EBC41189680144EF4800EBC41052
:10276000C06B091AEC4800EBC4100164EA4800EBA6
:10277000C4104369E84800EBC410026CE64800EB63
:10278000C410C16B02A801F0EBFCDDE90201CDE948
:102790000401E14800EBC41004990164DE4800EB39
:1027A000C41005998166DC4800EBC410C06A009033
:1027B000D94800EBC4104369D74800EBC410C26885
:1027C000D54800EBC410016C02A801F021FBDDE943
:1027D0000201CDE90401D04800EBC4100599C1669F
:1027E000CD4800EBC410036BCB4800EBC4108269EA
:1027F000C94800EBC410C16802A801F0EBFDDDE997
:102800000201CDE90401C44800EBC41004994164FD
:10281000C14800EBC41005994167BF4800EBC410E4
:10282000C168BD4800EBC41000690144BA4800EB20
:10283000C410406C091AB84800EBC4108164B64853
:1028400000EBC4108369B44800EBC410826CB2483A
:1028500000EBC410416C02A801F000FFDDE90201A9
:10286000CDE90401AC4800EBC41004998164AA4886
:1028700000EBC41005998167A74800EBC410006BFA
:102880000090A54800EBC4108369A34800EBC41076
:102890000269A14800EBC410816C02A801F0DCFCC5
:1028A000DDE90201CDE904019B4800EBC410059964
:1028B000C167994800EBC410416E974800EBC41003
:1028C000806E0144944800EBC410C06E01449248ED
:1028D00000EBC410406F01448F4800EBC410806FC0
:1028E00001448D4800EBC410C06F01448A4800EBDE
:1028F000C410806D814226D2874800EBC410416E1F
:10290000854800EBC410806E0144834800EBC4107E
:10291000C06E0144804800EBC410406F01447E4803
:1029200000EBC410806F01447B4800EBC410C06F03
:102930000144794800EBC410806D411A764800EBE1
:10294000C4100167B0E10021734800EBC410816638
:10295000714800EBC41081676F4800EBC410806DB4
:102960006D4901EBC411C96948436B4901EBC411BE
:10297000CA69694901EBC411096A1144B0FBF1F05D
:1029800005909DED050AB8EE400A5FEDA10A60EEE4
:10299000200A614800EBC41090ED070AB8EE401A17
:1029A00080EE810AF6EE000A30EE200ABDEEC00A83
:1029B00010EE100A584901EBC4118968884208D208
:1029C000554800EBC4108168534800EBC410C16047
:1029D00024E09DED050AB8EE400ADFED500A60EEF6
:1029E000200A4D4800EBC41090ED070AB8EE400AEB
:1029F00080EE801A484800EBC41090ED020AB8EE51
:102A0000400A31EE400AF6EE000A30EE200ABDEE32
:102A1000C00A414800EBC41080ED030A3E4800EBB9
:102A2000C410C0683C4901EBC4118968884212D1C6
:102A3000002508E00021384800EBC410643040F85D
:102A40002510681CC5B2072DF4DB0021324800EBCD
:102A5000C410016728E1304800EBC410C0682E495B
:102A600001EBC4118968401A00EE100AB8EE400A62
:102A7000DFED2B0A60EE200A274800EBC41090ED32
:102A8000070AB8EE400A80EE801ABCEEC10A22485E
:102A900000EBC41080ED0B0A1F4800EBC410C06AA5
:102AA0001D4901EBC411C969484341081A4800EBAC
:102AB000C4104161184800EBC41090ED070AF8EE0D
:102AC000400A154800EBC41090ED080AB8EE400A21
:102AD00080EE801A104800EBC41090ED0B0AB8EE9F
:102AE000400A61EE000A0C4800EBC41090ED070AA2
:102AF000B8EE401A084800EBC41090ED080AB8EE92
:102B0000400AC1EE001A20EEA10ABCEEC00A02483B
:102B100000EBC41006E00000802F01200000FA4402
:102B20000000C84380ED0C0A604800EBC410006B45
:102B30005E4901EBC411096A484341085B4800EB58
:102B4000C41081610021594800EBC41081665748C8
:102B500000EBC4108167554800EBC410C36A5348AA
:102B600000EBC4104269514800EBC410816802A810
:102B700001F0FAF9DDE90201CDE904014B4800EB6F
:102B8000C4100499C163494800EBC410059941661B
:102B9000464800EBC410C06A0090444800EBC410E3
:102BA0004369424800EBC410C268404800EBC410BF
:102BB000C16B02A801F02CF9DDE90201CDE90401A5
:102BC0003A4800EBC4100599C166384800EBC410C0
:102BD000036B364800EBC4108269344800EBC41024
:102BE000C16802A801F0F6FBDDE90201CDE90401AC
:102BF0002E4800EBC410049941642C4800EBC4102B
:102C000005994167294800EBC410006B00902748E4
:102C100000EBC4108369254800EBC4100269234807
:102C200000EBC410416C02A801F016FBDDE90201C3
:102C3000CDE904011D4800EBC4100599C1671B488C
:102C400000EBC410416E194800EBC410C06E014483
:102C5000164800EBC410406F0144144800EBC41048
:102C6000C06F0144114800EBC410806D81421BD23B
:102C70000E4800EBC410416E0C4800EBC410C06E4F
:102C800001440A4800EBC410406F0144074800EBC0
:102C9000C410C06F0144054800EBC410806D411A98
:102CA000024800EBC410016706B070BD802F012000
:102CB00070B504460D460B48407C78B100200949A8
:102CC00048740846406920600846027E193128464B
:102CD000FDF713FB0348007E40B270BD4FF0FF309C
:102CE000FBE70000B83C002038B50446FA2C08D1B8
:102CF00000200C230A22072100900120FFF730F862
:102D000013E0B4F57A7F08D1002003230A220721BB
:102D100000900120FFF724F807E0002006230A2294
:102D2000072100900120FFF71BF838BDF8B50546D4
:102D30000C4616461748006848BB01201549086034
:102D400008464560224631460930FDF7D6FA11485B
:102D500004720068C8B10F484068B0F5006F0AD22D
:102D60000C4809300B4900900B7A00224868114644
:102D7000FFF7C2F909E007480930064900900B7ACD
:102D8000002248680121FFF7B7F90020F8BD4FF095
:102D9000FF30FBE7B83C00200CB501464C4800EB87
:102DA000C11090ED060AB8EE400AF6EE000A20EED9
:102DB000200A9FED481AC0EE010A454800EBC110F9
:102DC00090ED030AB8EE400A30EE600AF6EE000A13
:102DD00030EE200ABDEEC00A8DED000A9DED000A1E
:102DE000B8EE400AF6EE000A60EE200A9FED391AAE
:102DF00080EE810AF6EE000A30EE200ABDEEC00A2F
:102E00008DED010A43E0324800EBC11090ED060A57
:102E1000B8EE400AF6EE000A20EE200A9FED2D1AC9
:102E2000C0EE010A9DED000AB8EE400A30EE600ADD
:102E3000F6EE000A30EE200ABDEEC00A8DED000A63
:102E4000234800EBC110009A0069824203D3009826
:102E5000B0F1E04F04D91E4800EBC11000690090AA
:102E60009DED000AB8EE400AF6EE000A20EE200AB8
:102E70009FED181AC0EE010AB6EE000A30EE800A85
:102E8000BDEEC00A10EE100A019A104401901048DD
:102E900000EBC11090ED060AB8EE400AF6EE000A0B
:102EA00020EE200ADFED0C0A80EE201AB6EE000AB2
:102EB00031EE000ABDEEC00A10EE100A044A02EB21
:102EC000C11212691044009A90429CD301980CBD23
:102ED000802F012000007A440000FA4410B5044617
:102EE000204602F0E7FCFD4901EBC4114865FB48B0
:102EF00000EBC410416DF94800EBC410806D8142B5
:102F000004D10020F54901EBC4114870F34800EBEF
:102F1000C410007800287DD1F04800EBC410407840
:102F2000022804D0042876D0062875D1F1E0EB48B9
:102F300000EBC410416DE94800EBC410006F014480
:102F4000E64800EBC410806F0144E44800EBC41075
:102F5000806D814265D8E14800EBC410416DDF48C7
:102F600000EBC410C06D81426DD3DC4800EBC4108F
:102F700090ED050AB8EE400AF6EE000A20EE200AAF
:102F80009FEDD71AC0EE010AB6EE000A30EE800AB5
:102F9000BDEEC00A10EE100AD04901EBC411C96C95
:102FA0000844CE4901EBC411C864CC4800EBC410FE
:102FB000C16CCA4800EBC410C068814204D2C74843
:102FC00000EBC410C06C03E0C44800EBC410C06840
:102FD000C24901EBC411C864C04800EBC41090EDB5
:102FE000130AB8EE400AF6EE000A60EE200A9FEDE2
:102FF000BC1A80EE810AF6EE000A30EE200ABDEE21
:10300000C00A10EE100AB54901EBC411C96D0144A4
:10301000B24802E0E3E017E0E0E000EBC410C16575
:1030200011E0AE4800EBC410006F60B1AB4800EB9C
:10303000C410C068A94901EBC411C8640420A749A1
:1030400001EBC4114870C9E0A44800EBC410416D05
:10305000A24800EBC410806F0144A04800EBC410EC
:10306000806D814254D39D4800EBC410816E9B4813
:1030700000EBC410006F0144984800EBC410C16518
:10308000964800EBC41090ED060AB8EE400AF6EE42
:10309000000A20EE200ADFED920A80EE201AB6EE3A
:1030A000000A71EE000A8D4800EBC41090ED130A7F
:1030B000B8EE400A30EE600ABDEEC00A874800EB69
:1030C000C41080ED130A854800EBC41090ED130A7C
:1030D000B8EE400AF6EE000A20EE200A9FED801AB4
:1030E000C0EE010AB6EE000A30EE800ABDEEC00A5C
:1030F00010EE100A794901EBC411C96D01447748FB
:1031000000EBC410C1650620744901EBC41148707E
:1031100064E0724800EBC410416D704800EBC410CD
:10312000C06D814259D36D4800EBC41090ED060A82
:10313000B8EE400AF6EE000A20EE200ADFED680A3B
:1031400080EE201AB6EE000A71EE000A634800EB2A
:10315000C41090ED130AB8EE400A30EE600ABDEEDE
:10316000C00A5E4800EBC41080ED130A5B4800EB18
:10317000C410C16C594800EBC4100069814204D9E5
:10318000564800EBC410C06C03E0544800EBC41078
:103190000069524901EBC411C864504800EBC410E7
:1031A00090ED130AB8EE400AF6EE000A20EE200A6F
:1031B000DFED4B0A80EE201AB6EE000A31EE000A6F
:1031C000BDEEC00A10EE100A444901EBC411C96DEE
:1031D0000144424800EBC410C16500BFFDE33F4815
:1031E00000EBC410407808287CD2DFE800F07B04B4
:1031F00083F8F7F6F5F4394800EBC410416D374811
:1032000000EBC410406E81426ED2344800EBC41013
:10321000416D324800EBC410C06D814269D32F4824
:1032200000EBC41090ED0D0AB8EE400AF6EE000A6D
:1032300060EE200A9FED2A1A80EE810AF6EE000A5F
:1032400030EE200ABDEEC00A10EE100A234901EB51
:10325000C411C96C0844214901EBC411C8641F485A
:1032600000EBC41090ED130AB8EE400AF6EE000A27
:1032700060EE200A9FED1A1A80EE810AF6EE000A2F
:1032800030EE200ABDEEC00A10EE100A134901EB21
:10329000C411C96D0144114800EBC410C1650F4849
:1032A00000EBC410416B0D4800EBC41090ED0B0A0D
:1032B000B8EE400AF6EE000A60EE200AB7EE001AF9
:1032C000B6EE000A00EE810ABDEEC00A10EE100A4A
:1032D0000844024901EBC41148630AE0802F012031
:1032E00000007A44FEE3FFE70220FE4901EBC4112F
:1032F000487025E2FB4800EBC410416EF94800EB32
:10330000C410806E0844F74901EBC411496D88422E
:1033100066D9F44800EBC410416DF24800EBC410CC
:10332000C06D814256D3EF4800EBC41090ED050A02
:10333000B8EE400AF6EE000A20EE200A5FED180A09
:1033400080EE201AB6EE000A31EE000ABDEEC00A89
:1033500010EE100AE34901EBC411C96C0844E149BD
:1033600001EBC411C864DF4800EBC410C16CDD4838
:1033700000EBC410C068814204D2DA4800EBC410EC
:10338000C06C03E0D74800EBC410C068D54901EB1E
:10339000C411C864D34800EBC41090ED130AB8EE12
:1033A000400AF6EE000A20EE200A5FED330A80EEB6
:1033B000201AB6EE000A31EE000ABDEEC00A10EE89
:1033C000100AC84901EBC411C96D0144C54800EB9E
:1033D000C410C16559E0E6E243E2B2E1FEE055E027
:1033E000C04800EBC41090ED050AB8EE400ABD4895
:1033F00000EBC410D0ED0B0AF8EE600AB6EE001A2E
:1034000060EE810AB7EE001A00EEC10AF6EE000A7D
:1034100030EE200ABDEEC00AB24800EBC41080EDC9
:103420000D0AB04800EBC410806E08B3AD4800EB45
:10343000C41090ED050AB8EE400AAA4800EBC4108B
:10344000D0ED0B0AF8EE600AB6EE001A60EE810AC3
:10345000B7EE001A00EEC10AF6EE000A30EE200ABE
:10346000BDEEC00A9F4800EBC41080ED0D0A07E0D6
:103470009C4800EBC41040699A4901EBC4114863B1
:103480000320984901EBC411487079E3954800EB9B
:10349000C410416E934800EBC410806E0144914803
:1034A00000EBC410C06E08448E4901EBC411496D95
:1034B00088427DD98B4800EBC410416D894800EBF0
:1034C000C410C06D814274D3864800EBC41090EDE7
:1034D0000D0AB8EE400AF6EE000A60EE200A1FED73
:1034E000801A80EE810AF6EE000A30EE200ABDEE68
:1034F000C00A10EE100A7B4901EBC411C96C0844E4
:10350000784901EBC411C864764800EBC410C16C63
:10351000744800EBC410C068814204D2714800EBCB
:10352000C410C06C03E06F4800EBC410C0686D4964
:1035300001EBC411C8646B4800EBC41090ED130A92
:10354000B8EE400AF6EE000A60EE200A1FED9C1A63
:1035500080EE810AF6EE000A30EE200ABDEEC00AC7
:1035600010EE100A5F4901EBC411C96D01445D48BA
:1035700000EBC410C1655B4800EBC41090ED0D0A70
:10358000B8EE400A574800EBC410D0ED0B0AF8EE35
:10359000600AB6EE001A60EE810AB7EE001A00EE7D
:1035A000C10AF6EE000A30EE200ABDEEC00A01E0C4
:1035B00006E012E04B4800EBC41080ED0D0A0CE071
:1035C000484800EBC410C068464901EBC411C86408
:1035D0000420444901EBC4114870D1E2414800EB9A
:1035E000C410416E3F4800EBC410806E01443D485A
:1035F00000EBC410C06E01443A4800EBC410006FE9
:103600000844384901EBC411496D88426CD83548EB
:1036100000EBC410416E334800EBC410806E0144CF
:10362000304800EBC410C06E01442E4800EBC410BB
:10363000006F01442B4800EBC410C165294800EB22
:10364000C41090ED0C0AB8EE400AF6EE000A60EEE7
:10365000200AB7EE001AB6EE000A00EE810ABDEEAF
:10366000C00A204800EBC41080ED0E0A1D4800EB94
:10367000C41090ED0E0AB8EE400AF6EE000A20EEF5
:10368000200A1FEDE91AC0EE010A164800EBC4102B
:1036900090ED130AB8EE400A30EE600AF6EE000A2A
:1036A00030EE200ABDEEC00A0E4800EBC41080EDDB
:1036B000130A0C4800EBC41090ED130AB8EE400A50
:1036C000F6EE000A60EE200A1FEDFB1A80EE810A7A
:1036D000F6EE000A30EE200ABDEEC00A10EE100A27
:1036E000004902E0802F01202AE001EBC411C96DDE
:1036F0000144FD4800EBC410C165FB4800EBC41059
:10370000816BF94800EBC41090ED0C0AB8EE400A4A
:10371000F6EE000A60EE200AB7EE001AB6EE000AD6
:1037200000EE810ABDEEC00A10EE100A0144EE4818
:1037300000EBC41081630520EB4901EBC411487014
:103740001EE2E94800EBC410416EE74800EBC410EC
:10375000806E0144E44800EBC410C06E0144E248AE
:1037600000EBC410006F0144DF4800EBC410406F51
:103770000844DD4901EBC411496D88426BD9DA4830
:1037800000EBC410416DD84800EBC410C06D8142FD
:1037900066D3D54800EBC41090ED0E0AB8EE400A8F
:1037A000F6EE000A20EE200A9FEDD01AC0EE010AC4
:1037B000CD4800EBC41090ED130AB8EE400A30EE8D
:1037C000600AF6EE000A30EE200ABDEEC00AC648D6
:1037D00000EBC41080ED130AC34800EBC41090ED59
:1037E000130AB8EE400AF6EE000A60EE200A9FEDDA
:1037F000BF1A80EE810AF6EE000A30EE200ABDEE16
:10380000C00A10EE100AB84901EBC411C96D014499
:10381000B54800EBC410C165B34800EBC410816B20
:10382000B14800EBC41090ED0C0AB8EE400AF6EE79
:10383000000A60EE200AB7EE001AB6EE000A00EEAB
:10384000810ABDEEC00A10EE100A0144A64800EB42
:10385000C410816304E00620A34901EBC411487041
:103860008EE1A14800EBC410416E9F4800EBC410EC
:10387000806E01449C4800EBC410C06E01449A481D
:1038800000EBC410006F0144974800EBC410406F78
:103890000144954800EBC410806F0844924901EB45
:1038A000C411496D88424DD98F4800EBC410416D59
:1038B0008D4800EBC410C06D814273D38A4800EB81
:1038C000C41090ED060AB8EE400AF6EE000A20EEAB
:1038D000200A9FED861AC0EE010A834800EBC4104F
:1038E00090ED130AB8EE400A30EE600AF6EE000AD8
:1038F00030EE200ABDEEC00A7B4800EBC41080ED1C
:10390000130A794800EBC41090ED130AB8EE400A90
:10391000F6EE000A60EE200A9FED741A80EE810A2E
:10392000F6EE000A30EE200ABDEEC00A10EE100AD4
:103930006D4901EBC411C96D01446B4800EBC41023
:10394000C1652FE0684800EBC410806FE8B166489D
:1039500000EBC41090ED060AB8EE400A624800EB96
:10396000C410D0ED0C0AF8EE600AB6EE001A00EEB4
:10397000C10AF6EE000A30EE200ABDEEC00A5A482F
:1039800000EBC41080ED0E0A07E0574800EBC410AE
:103990008169554800EBC41081630720524901EB4F
:1039A000C4114870ECE0504800EBC410416E4E4822
:1039B00000EBC410806E01444B4800EBC410C06E95
:1039C0000144494800EBC410006F0144464800EB35
:1039D000C410406F0144444800E0D2E000EBC41042
:1039E000806F0144404800EBC410C06F08443E495A
:1039F00001EBC411496D884275D93B4800EBC410F6
:103A0000416D394800EBC410C06D81426BD336481C
:103A100000EBC41090ED0E0AB8EE400AF6EE000A74
:103A200020EE200A9FED311AC0EE010A2E4800EB6D
:103A3000C41090ED130AB8EE400A30EE600AF6EEBC
:103A4000000A30EE200ABDEEC00A274800EBC41081
:103A500080ED130A244800EBC410C06CB0F1E04FB5
:103A600004D2214800EBC410C06C03E01E4800EBF8
:103A7000C41000691C4901EBC411C8641A4800EB6A
:103A8000C410C16C184800EBC4100069814204D90D
:103A9000154800EBC410C06C03E0134800EBC410E1
:103AA0000069114901EBC411C8640F4800EBC41050
:103AB00090ED130AB8EE400AF6EE000A60EE200A16
:103AC0009FED0A1A80EE810AF6EE000A30EE200A17
:103AD000BDEEC00A10EE100A034901EBC411C96D16
:103AE000014405E04BE049E0802F012000007A44CA
:103AF000264800EBC410C165244800EBC410816B5C
:103B0000224800EBC41090ED0C0AB8EE400AF6EE25
:103B1000000A60EE200AB7EE001AB6EE000A00EEC8
:103B2000810ABDEEC00A10EE100A814221D9174861
:103B300000EBC41090ED0E0AB8EE400A134800EBFB
:103B4000C410D0ED0C0AF8EE600AB6EE001A60EE72
:103B5000810AB7EE001A00EEC10AF6EE000A30EE56
:103B6000200ABDEEC00A094800EBC41080ED0E0A21
:103B700004E00021054800EBC410816300E000BFB1
:103B800000BF024800EBC410C06C10BD802F0120A4
:103B90002DE9F05F04460E4615461F46DDE90CABE5
:103BA000DDE90A89164800EBC4100670144800EBE2
:103BB000C4108560124800EBC410C564104800EBC7
:103BC000C410C7600E4800EBC410C0F810800C4849
:103BD00000EBC410C0F85890094800EBC410C0F8BE
:103BE0001CA0074800EBC410C0F820B02046FEF728
:103BF00085FB204602F0E6F90020BDE8F09F0000BA
:103C0000802F012070B50026002513488568002408
:103C10000AE02046FEF7E8FA064605EB04103146B6
:103C200003F048F8601CC4B20B484079A042F0DCB5
:103C30000948C56800240AE005EB041002F026F8E4
:103C4000064631462046FEF7D2FA601CC4B202484E
:103C50008079A042F0DC70BDC05A0020074800689F
:103C600000F0006040B10548806840F00060034902
:103C7000886000200249086370470000006002402D
:103C8000C00000200748406800F0200040B105480F
:103C9000C06840F020000349C86000200249086065
:103CA0007047000000600240C000002005484068E6
:103CB00000F4001028B10348C06840F40010014926
:103CC000C8607047006002400548406800F000602E
:103CD00028B10348C06840F000600149C8607047DF
:103CE000006002400648006800F4001038B1044843
:103CF0000830006840F4001001490831086070473E
:103D0000046402400848006800F0006050B10648B2
:103D10000830006840F00060034908310860002066
:103D2000024908607047000004640240C00000209F
:103D30001CB501202B4908802B49088000200090E9
:103D40000346032210210190284800F0A0FE012024
:103D5000244908802449088000200090034603225B
:103D600020210190214800F092FE2148006840F097
:103D700001001F4908600846006840F00200086022
:103D80000846006808600846006808600846006841
:103D90000860084600680860084600680860C814A3
:103DA0001349083108601248006840F48030104917
:103DB00008600846006840F4003008600846006863
:103DC0000860084600680860084600680860084601
:103DD00000680860084600680860C8140449143187
:103DE00008601CBD740847420006474200000240BC
:103DF000007400400246082A05DA044850F8220000
:103E00000180002070474FF0FF30FBE744020020A4
:103E10007CB504469DED060A00EE903AF8EE600A85
:103E2000B8EE401AF6EE001A41EE610AB6EE001A3C
:103E300070EE810AFDEEE00A10EE900A00EE900AA4
:103E4000F8EEE00AB6EE001A20EE811ADFED451A10
:103E5000C1EE210AB6EE001A70EE810AFDEEE00A0C
:103E600010EE905A0D440095DDED000AF8EE600A60
:103E7000B6EE001A60EE810A9FED3A1AC0EE811A82
:103E8000F6EE000A71EEA00AFDEEE00ACDED010AA1
:103E900000EE900AF8EEE00AB8EE401AF6EE001ACC
:103EA00041EE610AB6EE001A70EE810AFDEEE00AFC
:103EB00010EE900A3FE000EE900AF8EEE00AB6EE4F
:103EC000001A60EE810ADFED271A80EEA11AF6EEE5
:103ED000000A71EE200AFDEEE00A10EE905A009EF4
:103EE00035440095DDED000AF8EE600AB6EE001AE2
:103EF00020EE811ADFED1B1AC1EE210AB6EE001A80
:103F000070EE810AFDEEE00A10EE905A019E3544F3
:103F1000019500EE900AF8EEE00AB8EE401AF6EECF
:103F2000001A41EE610AB6EE001A70EE810AFDEE4B
:103F3000E00A10EE900AF8EE400AB7EE081A20EEFA
:103F4000811AF6EE001AF6EE000A41EE210AFDEEA5
:103F5000E00A10EE905A8542ADDBDDE90056C4E977
:103F600000567CBD00007A447CB5044600919DED6E
:103F7000000AB8EE400AF6EE000A20EE200A9FED95
:103F80003B1AC0EE010AB6EE000A30EE800ABDEE22
:103F9000C00A8DED010A00EE103AF8EE400AB6EEC6
:103FA000001AB6EE000A00EE810ABDEEC00A10EE5D
:103FB000100A40E000EE100AB8EE400AF6EE000AE1
:103FC00020EE200A9FED291AC0EE010AB6EE000A83
:103FD00030EE800ABDEEC00A10EE105A009E354445
:103FE00000959DED000AB8EE400AF6EE000A20EEBC
:103FF000200A9FED1E1AC0EE010AB6EE000A30EE4E
:10400000800ABDEEC00A10EE105A019E354401959B
:1040100000EE103AB8EE400AF6EE000A60EE200A12
:10402000B7EE001AB6EE000A00EE810ABDEEC00A35
:1040300010EE105A284400EE103AB8EE400AF6EEA0
:10404000000A60EE200AB6EE001AB6EE000A00EE94
:10405000810ABDEEC00A10EE105A05449542A9D35C
:10406000DDE90056C4E900567CBD000000007A443A
:104070003CB500919DED000AB8EE400AF6EE000A4C
:1040800020EE200A9FED341AC0EE010AB6EE000AB7
:1040900030EE800ABDEEC00A8DED010A00EE103A46
:1040A000B8EE400ADFED2D0AB4EEE00AF1EE10FAA8
:1040B0004BDD2DE000EE103AB8EE400AF6EE000AB5
:1040C00020EE200ADFED240A80EE201AB6EE000A68
:1040D00031EE000ABDEEC00A10EE104A009D2C44DD
:1040E00000949DED000AB8EE400AF6EE000A20EEBC
:1040F000200ADFED190A80EE201AB6EE000A31EE32
:10410000000ABDEEC00A10EE104A019D2C44019435
:1041100000EE103AB8EE400AF7EE080A20EE200A48
:10412000F6EE000A20EE200ADFED0B0A80EE201AE0
:10413000B6EE000A31EE000ABDEEC00A10EE104ADB
:10414000009D2C449442B5D301E000240194DDE9A4
:104150000045C0E900453CBD00007A440000FA4437
:104160003CB500EE103AB8EE400AF6EE000A20EE3A
:10417000200ADFED370A80EE201AB6EE000A31EE93
:10418000000ABDEEC00A10EE104A0C4400949DEDEA
:10419000000AB8EE400AF6EE000A20EE200ADFED33
:1041A0002C0A80EE201AB6EE000A31EE000ABDEEAF
:1041B000C00A8DED010A2DE000EE103AB8EE400A7B
:1041C000F6EE000A20EE200A9FED211AC0EE010A49
:1041D000B6EE000A30EE800ABDEEC00A10EE104ABC
:1041E000009D2C4400949DED000AB8EE400AF6EEC6
:1041F000000A20EE200ADFED160A80EE201AB6EE45
:10420000000A31EE000ABDEEC00A10EE104A019D10
:104210002C44019400EE103AB8EE400AF6EE000A83
:1042200020EE200A9FED0B1AC0EE010AB6EE000A3E
:1042300030EE800ABDEEC00A10EE104A009D2C44FC
:104240009442B9D3DDE90045C0E900453CBD00001A
:1042500000007A440000FA447CB504469DED060A4D
:1042600000EE903AF8EE600AB8EE401AF6EE001A48
:1042700041EE610AB6EE001A70EE810AFDEEE00A28
:1042800010EE900A00EE900AF8EE600AB6EE001A00
:1042900060EE810ADFED4E1A80EEA11A00EE901A50
:1042A000F8EE600A70EEC10AB6EE001A70EE810AEE
:1042B000FDEEE00ACDED000ADDED000AF8EE600A41
:1042C000B6EE001A60EE810A9FED411AC0EE811A27
:1042D000F6EE000A71EEA00AFDEEE00ACDED010A4D
:1042E00000EE900AF8EE600AB8EE401AF6EE001AF8
:1042F00041EE610AB6EE001A70EE810AFDEEE00AA8
:1043000010EE900A4AE000EE900AF8EE600AB6EE6F
:10431000001A60EE810ADFED2E1A80EEA11ADDEDA3
:10432000000AF8EE600A70EEC10AB6EE001A70EEEE
:10433000810AFDEEE00ACDED000A009D954203D30F
:10434000009DB5F1E06F00D90092DDED000AF8EEB6
:10435000600AB6EE001A60EE810A9FED1D1AC0EEEB
:10436000811AF6EE000A71EEA00AFDEEE00A10EEE8
:10437000905A019E3544019500EE900AF8EE600ACD
:10438000B8EE401AF6EE001A41EE610AB6EE001AD7
:1043900070EE810AFDEEE00A10EE900AF8EE400A97
:1043A000B6EE001A60EE810AB0EE001AC0EE811A75
:1043B000F6EE000A71EEA00AFDEEE00A10EE905A49
:1043C0008542A0D3DDE90056C4E900567CBD00005B
:1043D00000007A447CB5044600EE103AF8EE400A3C
:1043E000B6EE001AB6EE000A00EE810ABDEEC00A73
:1043F00010EE100A00EE100AB8EE400AF6EE000ABF
:1044000020EE200A9FED471AC0EE010A00EE101AB6
:10441000B8EE400A30EE600AF6EE000A30EE200AEE
:10442000BDEEC00A8DED000A9DED000AB8EE400A0F
:10443000F6EE000A20EE200ADFED3A0A80EE201A9E
:10444000B6EE000A31EE000ABDEEC00A8DED010A9B
:1044500000EE103AF8EE400AB6EE001AB6EE000A88
:1044600000EE810ABDEEC00A10EE105A28443FE06B
:1044700000EE100AB8EE400AF6EE000A20EE200A1E
:104480009FED281AC0EE010A9DED000AB8EE400A21
:1044900030EE600AF6EE000A30EE200ABDEEC00AE9
:1044A0008DED000A9DED000AB8EE400AF6EE000A16
:1044B00060EE200A9FED1B1A80EE810AF6EE000ADC
:1044C00030EE200ABDEEC00A10EE105A019E3544AF
:1044D000019500EE103AF8EE400AB6EE001AB6EE7C
:1044E000000A00EE810ABDEEC00A10EE105A284400
:1044F00000EE103AB8EE400AF6EE000A60EE200A2E
:10450000B6EE001AB6EE000A00EE810ABDEEC00A51
:1045100010EE105A05449542AAD3DDE90056C4E9CD
:1045200000567CBD00007A443CB500EE103AB8EE6F
:10453000400AF6EE000A20EE200A9FED461AC0EE71
:10454000010A00EE101AB8EE400A30EE600AF6EEEC
:10455000000A30EE200ABDEEC00A8DED000A9DED86
:10456000000AB8EE400AF6EE000A20EE200ADFED5F
:10457000390A80EE201AB6EE000A31EE000ABDEECE
:10458000C00A8DED010A00EE103AB8EE400ADFEDE8
:10459000320AB4EEE00AF1EE10FA52DD38E000EE35
:1045A000103AB8EE400AF6EE000A20EE200A9FED1F
:1045B000291AC0EE010A9DED000AB8EE400A30EE5D
:1045C000600AF6EE000A30EE200ABDEEC00A8DED5C
:1045D000000A009C944203D3009CB4F1E04F00D940
:1045E00000929DED000AB8EE400AF6EE000A20EEB9
:1045F000200A9FED181AC0EE010AB6EE000A30EE4E
:10460000800ABDEEC00A10EE104A019D2C440194B0
:1046100000EE103AB8EE400AF6EE000A20EE200A4C
:104620009FED0D1AC0EE010AB6EE000A30EE800AC8
:10463000BDEEC00A10EE104A1444009DAC42AED349
:1046400002E0009200240194DDE90045C0E9004544
:104650003CBD000000007A440000FA443CB500EE86
:10466000103AB8EE400AF6EE000A20EE200A9FED5E
:104670003D1AC0EE010A00EE101AB8EE400A30EE04
:10468000600AF6EE000A30EE200ABDEEC00A8DED9B
:10469000000A9DED000AB8EE400AF6EE000A20EE90
:1046A000200ADFED300A80EE201AB6EE000A31EE65
:1046B000000ABDEEC00A8DED010A30E000EE103AAE
:1046C000B8EE400AF6EE000A20EE200A9FED251A09
:1046D000C0EE010A9DED000AB8EE400A30EE600A15
:1046E000F6EE000A30EE200ABDEEC00A8DED000A9B
:1046F0009DED000AB8EE400AF6EE000A20EE200A10
:104700009FED181AC0EE010AB6EE000A30EE800ADC
:10471000BDEEC00A10EE104A019D2C44019400EE3B
:10472000103AB8EE400AF6EE000A20EE200A9FED9D
:104730000E1AC0EE010A00EE102AB8EE400A30EE62
:10474000800AF6EE000A30EE200ABDEEC00A10EE36
:10475000104A009DAC42B1D3DDE90045C0E90045F7
:104760003CBD000000007A440000FA440246082ADA
:1047700005DA044850F822000180002070474FF00D
:10478000FF30FBE7240200207CB50546042D58DAF3
:104790002D48006840F2FF1108432B490860284665
:1047A00000F02AFA054605EB450000EBC500274955
:1047B00001EB80040120216908800321CDE900106C
:1047C000237F00FA03F100230222606900F05FF901
:1047D00094F82820217F606900F039F90120032135
:1047E000CDE90010637F00FA03F100230222A069E3
:1047F00000F04DF994F82820617FA06900F027F9B6
:104800004FF6FF702168C8622068008B40F00100FD
:10481000216808832068008B40F480702168088339
:104820000020216848622068008940F00200216869
:1048300008812068008840F001002168088000207D
:104840007CBD4FF0FF30FBE730380240F004002021
:1048500010B51C4840681C490968401AB0F57A7FB9
:104860000CD91848406818490860002404E0204624
:1048700000F02EF8601CC4B2042CF8DB00241DE00C
:104880000021204600F0B6F804EB44010F4A42F83C
:1048900021000121204600F0ADF804EB44010B4A51
:1048A00002EB81014860204600F012F804EB44015D
:1048B000064A02EB81018860601CC4B2042CDFDB75
:1048C00010BD0000E0040020B4050020E03C002002
:1048D00000B50246042A7DDA104600F08DF9024642
:1048E000042A7DDA02EB420000EBC2003E4901EBF4
:1048F0008000406800683D4921F8120002EB420048
:1049000000EBC200384901EB80008068384931F87B
:104910001210401A354931F81210084402EB4201D6
:1049200001EBC201304B03EB81018860304830F865
:104930001200B0F5404F1DDB2D4830F81200B0F5E5
:10494000803F17DA294830F81200B0F5804F11DAAD
:1049500002EB420000EBC200194601EB80008068C8
:1049600000F5803002EB420101EBC20103EB810153
:10497000886023E01E4830F81200B0F5804F1DDA41
:104980001A4830F81200B0F5404F17DB174830F8DE
:104990001200B0F5803F11DA02EB420000EBC200DA
:1049A000114901EB80008068A0F5803002EB4201E4
:1049B00001EBC2010C4B03EB810188600B4830F81E
:1049C00012000B4921F8120002EB420000EBC2007A
:1049D000054901E006E003E001EB8000806800BDCE
:1049E0000020FCE70020FAE7F0040020AC050020DE
:1049F000A405002000B502460B46012B00DD012373
:104A0000042A14DA104600F0F7F80246042A0BDAFA
:104A100002EB420000EBC200064901EB80002030AF
:104A200050F82300008800BD4FF0FF30FBE74FF047
:104A3000FF30F8E7F004002010B5002404E0204621
:104A4000FFF7A2FE601CC4B2042CF8DB10BD30B529
:104A5000CC1000F1200353F824304C07E50E0F244E
:104A6000AC40A343CD1000F1200444F82530CC1015
:104A700000F1200353F824304C07E40E02FA04F44A
:104A80002343CD1000F1200444F8253030BD2DE93A
:104A9000F0470C46DDE90867002100258C4600BF81
:104AA00060E04FF0010808FA01F504EA050CAC4596
:104AB00057D1D0F800804FEA410A4FF0030909FAB4
:104AC0000AF928EA0908C0F80080D0F800804FEA07
:104AD000410902FA09F948EA0908C0F80080012AE8
:104AE00001D0022A27D1D0F808804FEA410A4FF0BE
:104AF000030909FA0AF928EA0908C0F80880D0F879
:104B000008804FEA410906FA09F948EA0908C0F89D
:104B10000880D0F804904FF0010808FA01F829EA5B
:104B20000809C0F80490D0F8048003FA01F948EAB3
:104B30000908C0F80480D0F80C804FEA410A4FF011
:104B4000030909FA0AF928EA0908C0F80C80D0F824
:104B50000C804FEA410907FA09F948EA0908C0F848
:104B60000C80491C10299CD3BDE8F0872DE9F04149
:104B700006ADE0CD099C4FF0000C84F807C0E07052
:104B800021726272A372E5722673677384F802C0A1
:104B90004FF0010C84F801C04FF0080C84F800C0FD
:104BA0004FF0030C84F806C04FF0000CA4F804C0CA
:104BB0004FF00108A4F814804FF00208A4F82480F4
:104BC0004FF00308A4F83480BDE8F08170B50446C6
:104BD00004EB4400074901EB8000406804EB440209
:104BE000D0E9025628463146FBF774FB07210840FE
:104BF000C0B270BDF05900200146042902DA024813
:104C0000405C7047FF20FCE7A00500200246002121
:104C10000BE001EB810000EBC100094B53F82000D1
:104C2000904200D103E0481CC1B20C29F1DB00BF67
:104C30000C2901DA084670474FF0FF30FBE700000F
:104C4000700200200146102902DB4FF0FF30704750
:104C5000C1EBC100024A02EB0010806EF7E70000D2
:104C6000103D00200146102902DB4FF0FF30704755
:104C7000C1EBC100024A02EB0010806DF7E70000B3
:104C8000103D00200146102902DB4FF0FF30704735
:104C9000C1EBC100024A02EB001090F86400F6E795
:104CA000103D00200146102902DB4FF0FF30704715
:104CB000C1EBC100094A02EB001090F8640048B94A
:104CC0000520C1EBC102054B03EB021282F8640020
:104CD0000020ECE74FF0FF30E9E70000103D002036
:104CE00010B5002468E0C4EBC400354901EB0010A6
:104CF00090F86400092852D2DFE800F005090F1B84
:104D00002733393F45002046FCF7A0FD47E0FBF77D
:104D100027FD2046FCF738FF41E0FBF721FD204648
:104D2000FCF7FEFB2046FCF765FC2046FCF718FF6D
:104D300035E0FBF715FD2046FCF7F2FB2046FCF7BB
:104D400059FC2046FBF7F6FC29E0FBF709FD20465D
:104D5000FCF7E6FB2046FCF74DFC2046FBF7D4FCB5
:104D60001DE0FBF7FDFC2046FBF76EFE17E0FBF7AE
:104D7000F7FC2046FBF7DCFC11E0FBF7F1FC2046DA
:104D8000FBF7ECFC0BE0FBF7EBFC2046FCF7C8FB69
:104D90002046FCF72FFC2046FCF70AFF00BF00BFAF
:104DA000C4EBC400064A02EB001090F83C10204609
:104DB000FBF78CFC601CC4B2102C94DB10BD00000F
:104DC000103D002070B504460D46102C02DB4FF05C
:104DD000FF3070BDC4EBC400154901EB001090F822
:104DE000640008BBC4EBC40001EB0010056520465D
:104DF000FCF70CFEC4EBC4000D4A02EB0010006D82
:104E0000C4EBC4020A4B03EB0212926D811A2046D6
:104E1000FBF74EFD0320C4EBC401054A02EB011170
:104E200081F864000020D4E74FF0FF30D1E70000A4
:104E3000103D002070B504460D46102C02DB4FF0EB
:104E4000FF3070BDC4EBC400184901EB001090F8AE
:104E5000640040BBC4EBC40001EB0010806D28442B
:104E6000C4EBC401114A02EB011108652046FCF7AE
:104E7000CDFDC4EBC4000D4A02EB0010006DC4EB85
:104E8000C4020A4B03EB0212926D811A2046FBF713
:104E90000FFD0320C4EBC401044A02EB011181F8A9
:104EA00064000020CDE74FF0FF30CAE7103D00203E
:104EB00070B504460D46102C02DB4FF0FF3070BD7C
:104EC000C4EBC400194901EB001090F8640050BB1A
:104ED000002D11DD2046FCF799FD4FF0E041204602
:104EE000FBF7E6FC0420C4EBC401104A02EB0111FD
:104EF00081F864000020E2E7002D11DA2046FCF77B
:104F000085FD4FF010412046FBF7D2FC0420C4EB96
:104F1000C401064A02EB011181F864000020CEE7CB
:104F20004FF0FF30CBE74FF0FF30C8E7103D0020D7
:104F30000146C1EBC1000B4A02EB001090F864007F
:104F400007280CD10020C1EBC102064B03EB021273
:104F50009066C1EBC10203EB021282F864000020EC
:104F600070470000103D00202DE9F04F0446DDE9B8
:104F70000BC8DDE90D69DDE90975102C03DB4FF085
:104F8000FF30BDE8F08FD1B1FF2A15DA0120C4EB64
:104F9000C40ADFF8A8B00BEB0A1A8AF83000C4EB99
:104FA000C400DA460AEB00104286C4EBC4000AEBE8
:104FB000001080F8313002E04FF0FF30E1E7DFB160
:104FC000FF2D16DA0120C4EBC40ADFF870B00BEB3A
:104FD0000A1A8AF83D00C4EBC400DA460AEB001056
:104FE00080F84350C4EBC4000AEB001080F841C0C5
:104FF00002E04FF0FF30C4E7B8F1000F1BD0FF2EE6
:1050000016DA0120C4EBC40ADFF830B00BEB0A1A41
:105010008AF83E00C4EBC400DA460AEB001080F8C0
:105020004460C4EBC4000AEB001080F8429002E038
:105030004FF0FF30A5E70020A3E70000103D00205F
:1050400010B50246102A02DB4FF0FF3010BD0020E1
:10505000C2EBC2033A4C04EB03139863052969D2EF
:10506000DFE801F003122E4A5900C2EBC200344BB4
:1050700003EB0010806B40F00400C2EBC203304C25
:1050800004EB0313986358E0C2EBC2002C4B03EB14
:105090000010806B40F00200C2EBC203284C04EB0E
:1050A00003139863C2EBC200234603EB0010806B2E
:1050B00040F00400C2EBC20304EB031398633CE02E
:1050C000C2EBC2001E4B03EB0010806B40F00100EE
:1050D000C2EBC2031A4C04EB03139863C2EBC20089
:1050E000234603EB0010806B40F00400C2EBC203C8
:1050F00004EB0313986320E0C2EBC200104B03EBF8
:105100000010806B40F00800C2EBC2030C4C04EBB3
:105110000313986311E0C2EBC200094B03EB0010CC
:10512000806B40F01000C2EBC203054C04EB03138C
:10513000986302E04FF0FF3088E700BF002085E76A
:10514000103D0020F0B50446059D102C02DB4FF009
:10515000FF30F0BD69B10120C4EBC4060D4F07EB71
:10516000061686F83F00C4EBC4003E4606EB00106E
:10517000826469B10120C4EBC406064F07EB061632
:1051800086F84000C4EBC4003E4606EB0010C56440
:105190000020DEE7103D00202DE9F05F04460D46BB
:1051A00016461F46DDF840B0DDF838A0DDE90A8973
:1051B000102C03DB4FF0FF30BDE8F09F2846FCF7D2
:1051C0004BFCC4EBC4015D4A02EB01110860384698
:1051D000FCF742FCC4EBC401584A02EB0111C86061
:1051E0004846FCF739FCC4EBC401544A02EB0111F8
:1051F00088610C98FCF730FCC4EBC4014F4A02EB09
:10520000011148620D98FCF727FCC4EBC4014B4A1E
:1052100002EB01118862C4EBC400114601EB0010DF
:10522000C0F82CA0C4EBC40001EB00108660C4EBF6
:10523000C40001EB0010C0F81480C4EBC40102EB01
:1052400001110F980862C4EBC400114601EB001075
:10525000C0F834B0C4EBC40001EB00100068C4EB2C
:10526000C40102EB0111C96888420BD3C4EBC4002E
:10527000114601EB0010C068401EC4EBC40102EBF4
:1052800001110860C4EBC4002C4901EB00108069D7
:10529000C4EBC401294A02EB0111C96888420BD34F
:1052A000C4EBC400114601EB0010C068401EC4EB03
:1052B000C40102EB01118861C4EBC4001F4901EB7A
:1052C000001080680A2806D20A20C4EBC4011B4AD9
:1052D00002EB01118860C4EBC400184901EB001017
:1052E00040690A2806D20A20C4EBC401134A02EB23
:1052F00001114861C4EBC400104901EB0010806843
:1053000042F21071884206D90846C4EBC4010B4A28
:1053100002EB01118860C4EBC400084901EB0010E6
:10532000406942F21071884206D90846C4EBC401B4
:10533000024A02EB0111486100203DE7103D0020C8
:1053400010B50446102C02DB4FF0FF3010BDC4EB4B
:10535000C4001A4901EB001090F86400032817D02C
:10536000C4EBC40001EB001090F8640004280FD0D7
:10537000C4EBC40001EB001090F86400082807D0CB
:10538000C4EBC40001EB001090F86400052812D1B2
:105390002046FCF77DFB0120C4EBC401074A02EB69
:1053A000011181F864000020C4EBC40102EB01117B
:1053B000A1F86200CAE74FF0FF30C7E7103D0020B8
:1053C00010B50446102C02DB4FF0FF3010BDC4EBCB
:1053D000C4001A4901EB001090F86400032817D0AC
:1053E000C4EBC40001EB001090F8640004280FD057
:1053F000C4EBC40001EB001090F86400082807D04B
:10540000C4EBC40001EB001090F86400052812D131
:105410002046FCF743FB0220C4EBC401074A02EB21
:10542000011181F864000020C4EBC40102EB0111FA
:10543000A1F86200CAE74FF0FF30C7E7103D002037
:105440002DE9F04F87B000BF41480068C8B1002483
:10545000254600260DE0304600F07EF84FEAE07A5F
:10546000324607465146FAF722FF04430D43701CAB
:10547000C6B23848C078B042EDDC35480068C0E9B3
:1054800002453348406820B300242546002618E032
:105490003046FAF7DFFFC117324680460391FAF72C
:1054A00006FF04430D43304600F068F8C11706F1CB
:1054B000100281460291FAF7FAFE04430D43701C74
:1054C000C6B224488078B042E2DC21484068C0E996
:1054D00002451F488068D0B11D488068D0E9024568
:1054E000002610E0A3463246584629460495FAF7AE
:1054F000F1FE01210840C0B201460190304600F0A3
:10550000CBF9701CC6B213480079B042EADC1048EF
:10551000C068D0B10E48C068D0E90245002610E04E
:10552000324620462946CDE90554FAF7D3FE01213B
:105530000840C0B2014601903046FFF717F9701CD1
:10554000C6B204488078B042EADC07B0BDE8F08F0C
:10555000B05A0020C05A00200146182904DA044835
:1055600050F82100008870474FF0FF30FBE7000043
:105570002401002010B5FFF7B3FB10BD0146082938
:1055800004DA044850F82100008870474FF0FF30DB
:10559000FBE70000040200200A4840680A49096845
:1055A000401AB0F57A7F0BD9064840680649086072
:1055B0000648008808B9012000E00020034908805F
:1055C00070470000E004002064020020B002434263
:1055D0001CB50A48006840F2FF11084307490860FB
:1055E0000120032100230246CDE9001001030448F5
:1055F000FFF74DFA0120034908801CBD30380240F6
:1056000000180240B00243422DE9F0430D46164611
:10561000DDE90774DFF894C160450BD96146DFF816
:1056200090C1DCF800C04CF4800CDFF88481C8F82D
:1056300000C00AE05F49DFF878C1DCF800C04CF434
:10564000001CDFF86C81C8F800C000BFD0F800C0B3
:105650000CF0010CBCF1000FF8D1A0EB010CACF187
:10566000100C4FF01808BCFBF8FC0CF0FF02062AE7
:1056700012DBD1F80CC0A2F1060808EB48084FEA8B
:10568000480808F110084FF03D0909FA08F94CEAFA
:10569000090CC1F80CC035E0042A10DBD1F80CC0AD
:1056A000A2F1040808EB48084FEA48094FF03D080A
:1056B00008FA09F84CEA080CC1F80CC022E0022AEA
:1056C00012DBD1F808C0A2F1020808EB48084FEA43
:1056D000480808F110084FF03D0909FA08F94CEAAA
:1056E000090CC1F808C00DE0D1F808C002EB42086F
:1056F0004FEA48094FF03D0808FA09F84CEA080C4F
:10570000C1F808C08660C36047604FF0000CC0F865
:1057100000C0D0F800C04CF0100CC0F800C004F07D
:10572000040CBCF1000F05D0D0F800C04CF0400CC8
:10573000C0F800C004F0020CBCF1000F05D0D0F896
:1057400000C04CF4807CC0F800C004F0080CBCF130
:10575000000F0BD0D0F800C04CF4006CC0F800C0B3
:10576000D0F800C04CF4005CC0F800C0D0F800C015
:10577000C0F800C0D0F800C04CF4806CC0F800C085
:10578000D0F800C04CF4803CC0F800C0D0F800C095
:10579000C0F800C0D0F800C0C0F800C0D0F800C009
:1057A0004CEA456CC0F800C0BDE8F08300640240DC
:1057B0003038024000600240026822F001020260BC
:1057C00000BF026802F00102002AFAD141600268BB
:1057D00042F00102026070472DE9F0410746884619
:1057E00014461D46284600F033F8C5F1040007FAB8
:1057F00000F60F20284100EA0800064306F00F06D5
:10580000E21704EBD2625211920002F1E022D2F8C8
:1058100000212146E31704EBD3635B11A4EB431C87
:10582000012303FA0CF31A432046E31704EBD36376
:105830005B119B0003F1E023C3F800210348005DE6
:1058400040EA061001490855BDE8F08100E400E097
:105850000146072323EA01021202054B18684FF69E
:10586000FF031840034B18431043014B1860704767
:105870000CED00E00000FA054A0A52020243014B17
:105880001A60704708ED00E000B5002001F08CFEC2
:10589000012001F089FE00BD0246182A05DA0448FD
:1058A00050F822000180002070474FF0FF30FBE7E6
:1058B00084010020014608290ADA0648415C01EB10
:1058C000810000EBC100044A02EB8000C06A70470F
:1058D0000020FCE768020020700200200146082931
:1058E0000ADA0648415C01EB810000EBC100044A82
:1058F00002EB8000806A70470020FCE7680200200D
:1059000070020020014608290ADA0748415C01EBD1
:10591000810000EBC100054A02EB8000406A70473D
:105920004FF0FF30FBE7000068020020700200200B
:1059300010B5002412E00B49095D01EB810202EB76
:10594000C101094A52F82100002100F0DFFE9FED5D
:10595000070A204600F0B6F8601CC4B2082CEADB47
:1059600010BD00006802002070020020CDCC2C4049
:105970000246082A09DA0648825C02EB820000EB44
:10598000C200044B03EB80008162002070470000DE
:10599000680200207002002070B502460B4600210C
:1059A00000244348834200D903460A2B00D20A232D
:1059B0004048B0FBF3F1082A77DA3F48825CB1F542
:1059C000803F30D202EB820000EBC2003B4D55F825
:1059D0002000008D401C642807DA02EB820000EBF7
:1059E000C20055F82000C1625CE002EB820000EBCF
:1059F000C200324D55F82000008D441C6420B4FBD9
:105A0000F0F0401E02EB820505EBC2052B4E56F866
:105A10002550288502EB820000EBC200354655F880
:105A20002000C1623EE04FF6FF7081423AD924481F
:105A3000814237D802EB820000EBC2001F4D55F8BF
:105A40002000008D401C642821DA02EB820000EB6C
:105A5000C20055F82000008D441C04EBC40000EB8C
:105A60000410012505EB800002EB820505EBC20561
:105A7000124E56F8255028856420B1FBF0F002EB59
:105A8000820505EBC20556F82550E8620AE064205D
:105A9000B1FBF0F002EB820505EBC205074E56F8AC
:105AA0002550E862002070BDFFE74FF0FF30FAE7B5
:105AB000400D030080F937036802002070020020C7
:105AC0009CFF63000146082914DA0C48415CDFEDB5
:105AD0000C0A60EE200AFCEEE00A10EE900A01EBE0
